{
  "contractName": "YogiToken",
  "abi": [
    {
      "inputs": [
        {
          "internalType": "string",
          "name": "_name",
          "type": "string"
        },
        {
          "internalType": "string",
          "name": "_symbol",
          "type": "string"
        }
      ],
      "stateMutability": "nonpayable",
      "type": "constructor"
    },
    {
      "anonymous": false,
      "inputs": [
        {
          "indexed": true,
          "internalType": "address",
          "name": "owner",
          "type": "address"
        },
        {
          "indexed": true,
          "internalType": "address",
          "name": "approved",
          "type": "address"
        },
        {
          "indexed": true,
          "internalType": "uint256",
          "name": "tokenId",
          "type": "uint256"
        }
      ],
      "name": "Approval",
      "type": "event"
    },
    {
      "anonymous": false,
      "inputs": [
        {
          "indexed": true,
          "internalType": "address",
          "name": "owner",
          "type": "address"
        },
        {
          "indexed": true,
          "internalType": "address",
          "name": "operator",
          "type": "address"
        },
        {
          "indexed": false,
          "internalType": "bool",
          "name": "approved",
          "type": "bool"
        }
      ],
      "name": "ApprovalForAll",
      "type": "event"
    },
    {
      "anonymous": false,
      "inputs": [
        {
          "indexed": true,
          "internalType": "address",
          "name": "owner",
          "type": "address"
        },
        {
          "indexed": false,
          "internalType": "uint256",
          "name": "id",
          "type": "uint256"
        },
        {
          "indexed": false,
          "internalType": "uint256",
          "name": "dna",
          "type": "uint256"
        }
      ],
      "name": "NewYogi",
      "type": "event"
    },
    {
      "anonymous": false,
      "inputs": [
        {
          "indexed": true,
          "internalType": "address",
          "name": "previousOwner",
          "type": "address"
        },
        {
          "indexed": true,
          "internalType": "address",
          "name": "newOwner",
          "type": "address"
        }
      ],
      "name": "OwnershipTransferred",
      "type": "event"
    },
    {
      "anonymous": false,
      "inputs": [
        {
          "indexed": true,
          "internalType": "address",
          "name": "from",
          "type": "address"
        },
        {
          "indexed": true,
          "internalType": "address",
          "name": "to",
          "type": "address"
        },
        {
          "indexed": true,
          "internalType": "uint256",
          "name": "tokenId",
          "type": "uint256"
        }
      ],
      "name": "Transfer",
      "type": "event"
    },
    {
      "inputs": [
        {
          "internalType": "address",
          "name": "to",
          "type": "address"
        },
        {
          "internalType": "uint256",
          "name": "tokenId",
          "type": "uint256"
        }
      ],
      "name": "approve",
      "outputs": [],
      "stateMutability": "nonpayable",
      "type": "function"
    },
    {
      "inputs": [
        {
          "internalType": "address",
          "name": "owner",
          "type": "address"
        }
      ],
      "name": "balanceOf",
      "outputs": [
        {
          "internalType": "uint256",
          "name": "",
          "type": "uint256"
        }
      ],
      "stateMutability": "view",
      "type": "function",
      "constant": true
    },
    {
      "inputs": [
        {
          "internalType": "uint256",
          "name": "tokenId",
          "type": "uint256"
        }
      ],
      "name": "getApproved",
      "outputs": [
        {
          "internalType": "address",
          "name": "",
          "type": "address"
        }
      ],
      "stateMutability": "view",
      "type": "function",
      "constant": true
    },
    {
      "inputs": [
        {
          "internalType": "address",
          "name": "owner",
          "type": "address"
        },
        {
          "internalType": "address",
          "name": "operator",
          "type": "address"
        }
      ],
      "name": "isApprovedForAll",
      "outputs": [
        {
          "internalType": "bool",
          "name": "",
          "type": "bool"
        }
      ],
      "stateMutability": "view",
      "type": "function",
      "constant": true
    },
    {
      "inputs": [],
      "name": "name",
      "outputs": [
        {
          "internalType": "string",
          "name": "",
          "type": "string"
        }
      ],
      "stateMutability": "view",
      "type": "function",
      "constant": true
    },
    {
      "inputs": [],
      "name": "owner",
      "outputs": [
        {
          "internalType": "address",
          "name": "",
          "type": "address"
        }
      ],
      "stateMutability": "view",
      "type": "function",
      "constant": true
    },
    {
      "inputs": [
        {
          "internalType": "uint256",
          "name": "tokenId",
          "type": "uint256"
        }
      ],
      "name": "ownerOf",
      "outputs": [
        {
          "internalType": "address",
          "name": "",
          "type": "address"
        }
      ],
      "stateMutability": "view",
      "type": "function",
      "constant": true
    },
    {
      "inputs": [],
      "name": "renounceOwnership",
      "outputs": [],
      "stateMutability": "nonpayable",
      "type": "function"
    },
    {
      "inputs": [
        {
          "internalType": "address",
          "name": "from",
          "type": "address"
        },
        {
          "internalType": "address",
          "name": "to",
          "type": "address"
        },
        {
          "internalType": "uint256",
          "name": "tokenId",
          "type": "uint256"
        }
      ],
      "name": "safeTransferFrom",
      "outputs": [],
      "stateMutability": "nonpayable",
      "type": "function"
    },
    {
      "inputs": [
        {
          "internalType": "address",
          "name": "from",
          "type": "address"
        },
        {
          "internalType": "address",
          "name": "to",
          "type": "address"
        },
        {
          "internalType": "uint256",
          "name": "tokenId",
          "type": "uint256"
        },
        {
          "internalType": "bytes",
          "name": "_data",
          "type": "bytes"
        }
      ],
      "name": "safeTransferFrom",
      "outputs": [],
      "stateMutability": "nonpayable",
      "type": "function"
    },
    {
      "inputs": [
        {
          "internalType": "address",
          "name": "operator",
          "type": "address"
        },
        {
          "internalType": "bool",
          "name": "approved",
          "type": "bool"
        }
      ],
      "name": "setApprovalForAll",
      "outputs": [],
      "stateMutability": "nonpayable",
      "type": "function"
    },
    {
      "inputs": [
        {
          "internalType": "bytes4",
          "name": "interfaceId",
          "type": "bytes4"
        }
      ],
      "name": "supportsInterface",
      "outputs": [
        {
          "internalType": "bool",
          "name": "",
          "type": "bool"
        }
      ],
      "stateMutability": "view",
      "type": "function",
      "constant": true
    },
    {
      "inputs": [],
      "name": "symbol",
      "outputs": [
        {
          "internalType": "string",
          "name": "",
          "type": "string"
        }
      ],
      "stateMutability": "view",
      "type": "function",
      "constant": true
    },
    {
      "inputs": [
        {
          "internalType": "uint256",
          "name": "tokenId",
          "type": "uint256"
        }
      ],
      "name": "tokenURI",
      "outputs": [
        {
          "internalType": "string",
          "name": "",
          "type": "string"
        }
      ],
      "stateMutability": "view",
      "type": "function",
      "constant": true
    },
    {
      "inputs": [
        {
          "internalType": "address",
          "name": "from",
          "type": "address"
        },
        {
          "internalType": "address",
          "name": "to",
          "type": "address"
        },
        {
          "internalType": "uint256",
          "name": "tokenId",
          "type": "uint256"
        }
      ],
      "name": "transferFrom",
      "outputs": [],
      "stateMutability": "nonpayable",
      "type": "function"
    },
    {
      "inputs": [
        {
          "internalType": "address",
          "name": "newOwner",
          "type": "address"
        }
      ],
      "name": "transferOwnership",
      "outputs": [],
      "stateMutability": "nonpayable",
      "type": "function"
    },
    {
      "inputs": [
        {
          "internalType": "uint256",
          "name": "",
          "type": "uint256"
        }
      ],
      "name": "yogis",
      "outputs": [
        {
          "internalType": "string",
          "name": "name",
          "type": "string"
        },
        {
          "internalType": "uint256",
          "name": "id",
          "type": "uint256"
        },
        {
          "internalType": "uint256",
          "name": "dna",
          "type": "uint256"
        },
        {
          "internalType": "uint8",
          "name": "level",
          "type": "uint8"
        },
        {
          "internalType": "uint8",
          "name": "rarity",
          "type": "uint8"
        }
      ],
      "stateMutability": "view",
      "type": "function",
      "constant": true
    },
    {
      "inputs": [
        {
          "internalType": "uint256",
          "name": "_fee",
          "type": "uint256"
        }
      ],
      "name": "updateFee",
      "outputs": [],
      "stateMutability": "nonpayable",
      "type": "function"
    },
    {
      "inputs": [],
      "name": "withdraw",
      "outputs": [],
      "stateMutability": "payable",
      "type": "function",
      "payable": true
    },
    {
      "inputs": [
        {
          "internalType": "string",
          "name": "_name",
          "type": "string"
        }
      ],
      "name": "createRandonYogi",
      "outputs": [],
      "stateMutability": "payable",
      "type": "function",
      "payable": true
    },
    {
      "inputs": [],
      "name": "getYogis",
      "outputs": [
        {
          "components": [
            {
              "internalType": "string",
              "name": "name",
              "type": "string"
            },
            {
              "internalType": "uint256",
              "name": "id",
              "type": "uint256"
            },
            {
              "internalType": "uint256",
              "name": "dna",
              "type": "uint256"
            },
            {
              "internalType": "uint8",
              "name": "level",
              "type": "uint8"
            },
            {
              "internalType": "uint8",
              "name": "rarity",
              "type": "uint8"
            }
          ],
          "internalType": "struct YogiToken.Yogi[]",
          "name": "",
          "type": "tuple[]"
        }
      ],
      "stateMutability": "view",
      "type": "function",
      "constant": true
    },
    {
      "inputs": [
        {
          "internalType": "address",
          "name": "_owner",
          "type": "address"
        }
      ],
      "name": "getOwnerYogis",
      "outputs": [
        {
          "components": [
            {
              "internalType": "string",
              "name": "name",
              "type": "string"
            },
            {
              "internalType": "uint256",
              "name": "id",
              "type": "uint256"
            },
            {
              "internalType": "uint256",
              "name": "dna",
              "type": "uint256"
            },
            {
              "internalType": "uint8",
              "name": "level",
              "type": "uint8"
            },
            {
              "internalType": "uint8",
              "name": "rarity",
              "type": "uint8"
            }
          ],
          "internalType": "struct YogiToken.Yogi[]",
          "name": "",
          "type": "tuple[]"
        }
      ],
      "stateMutability": "view",
      "type": "function",
      "constant": true
    },
    {
      "inputs": [
        {
          "internalType": "uint256",
          "name": "_yogiId",
          "type": "uint256"
        }
      ],
      "name": "levelUp",
      "outputs": [],
      "stateMutability": "nonpayable",
      "type": "function"
    }
  ],
  "bytecode": "0x6080604052662386f26fc100006008553480156200001c57600080fd5b5060405162002507380380620025078339810160408190526200003f916200023a565b81518290829062000058906000906020850190620000e9565b5080516200006e906001906020840190620000e9565b5050506200008b620000856200009360201b60201c565b62000097565b5050620002f4565b3390565b600680546001600160a01b038381166001600160a01b0319831681179093556040519116919082907f8be0079c531659141344cd1fd0a4f28419497f9722a3daafe3b4186f6b6457e090600090a35050565b828054620000f790620002a1565b90600052602060002090601f0160209004810192826200011b576000855562000166565b82601f106200013657805160ff191683800117855562000166565b8280016001018555821562000166579182015b828111156200016657825182559160200191906001019062000149565b506200017492915062000178565b5090565b5b8082111562000174576000815560010162000179565b600082601f830112620001a0578081fd5b81516001600160401b0380821115620001bd57620001bd620002de565b6040516020601f8401601f1916820181018381118382101715620001e557620001e5620002de565b6040528382528584018101871015620001fc578485fd5b8492505b838310156200021f578583018101518284018201529182019162000200565b838311156200023057848185840101525b5095945050505050565b600080604083850312156200024d578182fd5b82516001600160401b038082111562000264578384fd5b62000272868387016200018f565b9350602085015191508082111562000288578283fd5b5062000297858286016200018f565b9150509250929050565b600281046001821680620002b657607f821691505b60208210811415620002d857634e487b7160e01b600052602260045260246000fd5b50919050565b634e487b7160e01b600052604160045260246000fd5b61220380620003046000396000f3fe6080604052600436106101405760003560e01c806370a08231116100b6578063b88d4fde1161006f578063b88d4fde1461037e578063c87b56dd1461039e578063e985e9c5146103be578063f2fde38b146103de578063fa111ff3146103fe578063ffbe143d1461041357610140565b806370a08231146102d2578063715018a6146102ff5780638da5cb5b146103145780639012c4a81461032957806395d89b4114610349578063a22cb4651461035e57610140565b806323b872dd1161010857806323b872dd1461020c5780632fb02b211461022c5780633ccfd60b1461025d57806342842e0e146102655780636352211e146102855780636b9adb44146102a557610140565b806301ffc9a71461014557806306fdde031461017b578063081812fc1461019d578063095ea7b3146101ca5780630ce90ec2146101ec575b600080fd5b34801561015157600080fd5b50610165610160366004611949565b610426565b6040516101729190611b46565b60405180910390f35b34801561018757600080fd5b5061019061046e565b6040516101729190611b51565b3480156101a957600080fd5b506101bd6101b83660046119c7565b610500565b6040516101729190611a5a565b3480156101d657600080fd5b506101ea6101e5366004611920565b61054c565b005b3480156101f857600080fd5b506101ea6102073660046119c7565b6105e4565b34801561021857600080fd5b506101ea610227366004611832565b61067c565b34801561023857600080fd5b5061024c6102473660046119c7565b6106b4565b604051610172959493929190611b64565b6101ea61078a565b34801561027157600080fd5b506101ea610280366004611832565b61080f565b34801561029157600080fd5b506101bd6102a03660046119c7565b61082a565b3480156102b157600080fd5b506102c56102c03660046117e6565b61085f565b6040516101729190611aab565b3480156102de57600080fd5b506102f26102ed3660046117e6565b610a51565b6040516101729190612065565b34801561030b57600080fd5b506101ea610a95565b34801561032057600080fd5b506101bd610ae0565b34801561033557600080fd5b506101ea6103443660046119c7565b610aef565b34801561035557600080fd5b50610190610b33565b34801561036a57600080fd5b506101ea6103793660046118e6565b610b42565b34801561038a57600080fd5b506101ea61039936600461186d565b610b54565b3480156103aa57600080fd5b506101906103b93660046119c7565b610b93565b3480156103ca57600080fd5b506101656103d9366004611800565b610c16565b3480156103ea57600080fd5b506101ea6103f93660046117e6565b610c44565b34801561040a57600080fd5b506102c5610cb5565b6101ea610421366004611981565b610ddb565b60006001600160e01b031982166380ac58cd60e01b148061045757506001600160e01b03198216635b5e139f60e01b145b80610466575061046682610e06565b90505b919050565b60606000805461047d906120eb565b80601f01602080910402602001604051908101604052809291908181526020018280546104a9906120eb565b80156104f65780601f106104cb576101008083540402835291602001916104f6565b820191906000526020600020905b8154815290600101906020018083116104d957829003601f168201915b5050505050905090565b600061050b82610e1f565b6105305760405162461bcd60e51b815260040161052790611e59565b60405180910390fd5b506000908152600460205260409020546001600160a01b031690565b60006105578261082a565b9050806001600160a01b0316836001600160a01b0316141561058b5760405162461bcd60e51b815260040161052790611fa9565b806001600160a01b031661059d610e3c565b6001600160a01b031614806105b957506105b9816103d9610e3c565b6105d55760405162461bcd60e51b815260040161052790611d34565b6105df8383610e40565b505050565b336105ee8261082a565b6001600160a01b0316146106145760405162461bcd60e51b815260040161052790611fea565b60006009828154811061063757634e487b7160e01b600052603260045260246000fd5b6000918252602082206003600490920201908101805491935060ff9091169161065f83612141565b91906101000a81548160ff021916908360ff160217905550505050565b61068d610687610e3c565b82610eae565b6106a95760405162461bcd60e51b815260040161052790612014565b6105df838383610f33565b600981815481106106c457600080fd5b90600052602060002090600402016000915090508060000180546106e7906120eb565b80601f0160208091040260200160405190810160405280929190818152602001828054610713906120eb565b80156107605780601f1061073557610100808354040283529160200191610760565b820191906000526020600020905b81548152906001019060200180831161074357829003601f168201915b50505050600183015460028401546003909401549293909290915060ff8082169161010090041685565b610792610e3c565b6001600160a01b03166107a3610ae0565b6001600160a01b0316146107c95760405162461bcd60e51b815260040161052790611ea5565b60006107d3610ae0565b6040519091506001600160a01b038216904780156108fc02916000818181858888f1935050505015801561080b573d6000803e3d6000fd5b5050565b6105df83838360405180602001604052806000815250610b54565b6000818152600260205260408120546001600160a01b0316806104665760405162461bcd60e51b815260040161052790611ddb565b6060600061086c83610a51565b67ffffffffffffffff81111561089257634e487b7160e01b600052604160045260246000fd5b6040519080825280602002602001820160405280156108cb57816020015b6108b8611691565b8152602001906001900390816108b05790505b5090506000805b600954811015610a4857846001600160a01b03166108ef8261082a565b6001600160a01b03161415610a36576009818154811061091f57634e487b7160e01b600052603260045260246000fd5b90600052602060002090600402016040518060a0016040529081600082018054610948906120eb565b80601f0160208091040260200160405190810160405280929190818152602001828054610974906120eb565b80156109c15780601f10610996576101008083540402835291602001916109c1565b820191906000526020600020905b8154815290600101906020018083116109a457829003601f168201915b5050509183525050600182015460208201526002820154604082015260039091015460ff8082166060840152610100909104166080909101528351849084908110610a1c57634e487b7160e01b600052603260045260246000fd5b60200260200101819052508180610a3290612126565b9250505b80610a4081612126565b9150506108d2565b50909392505050565b60006001600160a01b038216610a795760405162461bcd60e51b815260040161052790611d91565b506001600160a01b031660009081526003602052604090205490565b610a9d610e3c565b6001600160a01b0316610aae610ae0565b6001600160a01b031614610ad45760405162461bcd60e51b815260040161052790611ea5565b610ade6000611060565b565b6006546001600160a01b031690565b610af7610e3c565b6001600160a01b0316610b08610ae0565b6001600160a01b031614610b2e5760405162461bcd60e51b815260040161052790611ea5565b600855565b60606001805461047d906120eb565b61080b610b4d610e3c565b83836110b2565b610b65610b5f610e3c565b83610eae565b610b815760405162461bcd60e51b815260040161052790612014565b610b8d84848484611155565b50505050565b6060610b9e82610e1f565b610bba5760405162461bcd60e51b815260040161052790611f23565b6000610bc4611188565b90506000815111610be45760405180602001604052806000815250610c0f565b80610bee8461119a565b604051602001610bff929190611a0b565b6040516020818303038152906040525b9392505050565b6001600160a01b03918216600090815260056020908152604080832093909416825291909152205460ff1690565b610c4c610e3c565b6001600160a01b0316610c5d610ae0565b6001600160a01b031614610c835760405162461bcd60e51b815260040161052790611ea5565b6001600160a01b038116610ca95760405162461bcd60e51b815260040161052790611bf0565b610cb281611060565b50565b60606009805480602002602001604051908101604052809291908181526020016000905b82821015610dd257838290600052602060002090600402016040518060a0016040529081600082018054610d0c906120eb565b80601f0160208091040260200160405190810160405280929190818152602001828054610d38906120eb565b8015610d855780601f10610d5a57610100808354040283529160200191610d85565b820191906000526020600020905b815481529060010190602001808311610d6857829003601f168201915b50505091835250506001828101546020808401919091526002840154604084015260039093015460ff80821660608501526101009091041660809092019190915291835292019101610cd9565b50505050905090565b600854341115610dfd5760405162461bcd60e51b815260040161052790611f72565b610cb2816112b5565b6001600160e01b031981166301ffc9a760e01b14919050565b6000908152600260205260409020546001600160a01b0316151590565b3390565b600081815260046020526040902080546001600160a01b0319166001600160a01b0384169081179091558190610e758261082a565b6001600160a01b03167f8c5be1e5ebec7d5bd14f71427d1e84f3dd0314c0f7b2291e5b200ac8c7c3b92560405160405180910390a45050565b6000610eb982610e1f565b610ed55760405162461bcd60e51b815260040161052790611ce8565b6000610ee08361082a565b9050806001600160a01b0316846001600160a01b03161480610f1b5750836001600160a01b0316610f1084610500565b6001600160a01b0316145b80610f2b5750610f2b8185610c16565b949350505050565b826001600160a01b0316610f468261082a565b6001600160a01b031614610f6c5760405162461bcd60e51b815260040161052790611eda565b6001600160a01b038216610f925760405162461bcd60e51b815260040161052790611c6d565b610f9d8383836105df565b610fa8600082610e40565b6001600160a01b0383166000908152600360205260408120805460019290610fd19084906120a8565b90915550506001600160a01b0382166000908152600360205260408120805460019290610fff90849061207c565b909155505060008181526002602052604080822080546001600160a01b0319166001600160a01b0386811691821790925591518493918716917fddf252ad1be2c89b69c2b068fc378daa952ba7f163c4a11628f55a4df523b3ef91a4505050565b600680546001600160a01b038381166001600160a01b0319831681179093556040519116919082907f8be0079c531659141344cd1fd0a4f28419497f9722a3daafe3b4186f6b6457e090600090a35050565b816001600160a01b0316836001600160a01b031614156110e45760405162461bcd60e51b815260040161052790611cb1565b6001600160a01b0383811660008181526005602090815260408083209487168084529490915290819020805460ff1916851515179055517f17307eab39ab6107e8899845ad3d59bd9653f200f220920489ca2b5937696c3190611148908590611b46565b60405180910390a3505050565b611160848484610f33565b61116c8484848461140a565b610b8d5760405162461bcd60e51b815260040161052790611b9e565b60408051602081019091526000815290565b6060816111bf57506040805180820190915260018152600360fc1b6020820152610469565b8160005b81156111e957806111d381612126565b91506111e29050600a83612094565b91506111c3565b60008167ffffffffffffffff81111561121257634e487b7160e01b600052604160045260246000fd5b6040519080825280601f01601f19166020018201604052801561123c576020820181803683370190505b5090505b8415610f2b576112516001836120a8565b915061125e600a86612161565b61126990603061207c565b60f81b81838151811061128c57634e487b7160e01b600052603260045260246000fd5b60200101906001600160f81b031916908160001a9053506112ae600a86612094565b9450611240565b60006112c16064611525565b905060006112d5662386f26fc10000611525565b6040805160a08101825285815260075460208083019190915291810183905260016060820181905260ff86166080830152600980549182018155600052815180519495509193849360049092027f6e1540171b6c0c960b71a7020d9f60077f6af931a8bbf590da0223dacf75c7af01926113539284929101906116c6565b50602082015160018201556040820151600282015560608201516003909101805460809093015160ff9081166101000261ff00199190931660ff1990941693909317929092161790556007546113aa90339061155f565b336001600160a01b03167f3b1e56e1c3e4530a329373b72af43c6c6fc104bc23948806906cc43879fe1b37600754846040516113e792919061206e565b60405180910390a2600780549060006113ff83612126565b919050555050505050565b600061141e846001600160a01b0316611579565b1561151a57836001600160a01b031663150b7a0261143a610e3c565b8786866040518563ffffffff1660e01b815260040161145c9493929190611a6e565b602060405180830381600087803b15801561147657600080fd5b505af19250505080156114a6575060408051601f3d908101601f191682019092526114a391810190611965565b60015b611500573d8080156114d4576040519150601f19603f3d011682016040523d82523d6000602084013e6114d9565b606091505b5080516114f85760405162461bcd60e51b815260040161052790611b9e565b805181602001fd5b6001600160e01b031916630a85bd0160e11b149050610f2b565b506001949350505050565b600080423360405160200161153b929190611a3a565b60408051601f1981840301815291905280516020909101209050610c0f8382612161565b61080b82826040518060200160405280600081525061157f565b3b151590565b61158983836115b2565b611596600084848461140a565b6105df5760405162461bcd60e51b815260040161052790611b9e565b6001600160a01b0382166115d85760405162461bcd60e51b815260040161052790611e24565b6115e181610e1f565b156115fe5760405162461bcd60e51b815260040161052790611c36565b61160a600083836105df565b6001600160a01b038216600090815260036020526040812080546001929061163390849061207c565b909155505060008181526002602052604080822080546001600160a01b0319166001600160a01b03861690811790915590518392907fddf252ad1be2c89b69c2b068fc378daa952ba7f163c4a11628f55a4df523b3ef908290a45050565b6040518060a00160405280606081526020016000815260200160008152602001600060ff168152602001600060ff1681525090565b8280546116d2906120eb565b90600052602060002090601f0160209004810192826116f4576000855561173a565b82601f1061170d57805160ff191683800117855561173a565b8280016001018555821561173a579182015b8281111561173a57825182559160200191906001019061171f565b5061174692915061174a565b5090565b5b80821115611746576000815560010161174b565b600067ffffffffffffffff8084111561177a5761177a6121a1565b604051601f8501601f19168101602001828111828210171561179e5761179e6121a1565b6040528481529150818385018610156117b657600080fd5b8484602083013760006020868301015250509392505050565b80356001600160a01b038116811461046957600080fd5b6000602082840312156117f7578081fd5b610c0f826117cf565b60008060408385031215611812578081fd5b61181b836117cf565b9150611829602084016117cf565b90509250929050565b600080600060608486031215611846578081fd5b61184f846117cf565b925061185d602085016117cf565b9150604084013590509250925092565b60008060008060808587031215611882578081fd5b61188b856117cf565b9350611899602086016117cf565b925060408501359150606085013567ffffffffffffffff8111156118bb578182fd5b8501601f810187136118cb578182fd5b6118da8782356020840161175f565b91505092959194509250565b600080604083850312156118f8578182fd5b611901836117cf565b915060208301358015158114611915578182fd5b809150509250929050565b60008060408385031215611932578182fd5b61193b836117cf565b946020939093013593505050565b60006020828403121561195a578081fd5b8135610c0f816121b7565b600060208284031215611976578081fd5b8151610c0f816121b7565b600060208284031215611992578081fd5b813567ffffffffffffffff8111156119a8578182fd5b8201601f810184136119b8578182fd5b610f2b8482356020840161175f565b6000602082840312156119d8578081fd5b5035919050565b600081518084526119f78160208601602086016120bf565b601f01601f19169290920160200192915050565b60008351611a1d8184602088016120bf565b835190830190611a318183602088016120bf565b01949350505050565b91825260601b6bffffffffffffffffffffffff1916602082015260340190565b6001600160a01b0391909116815260200190565b6001600160a01b0385811682528416602082015260408101839052608060608201819052600090611aa1908301846119df565b9695505050505050565b60208082528251828201819052600091906040908185019080840286018301878501865b83811015611b3857603f19898403018552815160a08151818652611af5828701826119df565b838b0151878c0152898401518a88015260608085015160ff9081169189019190915260809485015116939096019290925250509386019390860190600101611acf565b509098975050505050505050565b901515815260200190565b600060208252610c0f60208301846119df565b600060a08252611b7760a08301886119df565b602083019690965250604081019390935260ff918216606084015216608090910152919050565b60208082526032908201527f4552433732313a207472616e7366657220746f206e6f6e20455243373231526560408201527131b2b4bb32b91034b6b83632b6b2b73a32b960711b606082015260800190565b60208082526026908201527f4f776e61626c653a206e6577206f776e657220697320746865207a65726f206160408201526564647265737360d01b606082015260800190565b6020808252601c908201527f4552433732313a20746f6b656e20616c7265616479206d696e74656400000000604082015260600190565b60208082526024908201527f4552433732313a207472616e7366657220746f20746865207a65726f206164646040820152637265737360e01b606082015260800190565b60208082526019908201527f4552433732313a20617070726f766520746f2063616c6c657200000000000000604082015260600190565b6020808252602c908201527f4552433732313a206f70657261746f7220717565727920666f72206e6f6e657860408201526b34b9ba32b73a103a37b5b2b760a11b606082015260800190565b60208082526038908201527f4552433732313a20617070726f76652063616c6c6572206973206e6f74206f7760408201527f6e6572206e6f7220617070726f76656420666f7220616c6c0000000000000000606082015260800190565b6020808252602a908201527f4552433732313a2062616c616e636520717565727920666f7220746865207a65604082015269726f206164647265737360b01b606082015260800190565b60208082526029908201527f4552433732313a206f776e657220717565727920666f72206e6f6e657869737460408201526832b73a103a37b5b2b760b91b606082015260800190565b6020808252818101527f4552433732313a206d696e7420746f20746865207a65726f2061646472657373604082015260600190565b6020808252602c908201527f4552433732313a20617070726f76656420717565727920666f72206e6f6e657860408201526b34b9ba32b73a103a37b5b2b760a11b606082015260800190565b6020808252818101527f4f776e61626c653a2063616c6c6572206973206e6f7420746865206f776e6572604082015260600190565b60208082526029908201527f4552433732313a207472616e73666572206f6620746f6b656e2074686174206960408201526839903737ba1037bbb760b91b606082015260800190565b6020808252602f908201527f4552433732314d657461646174613a2055524920717565727920666f72206e6f60408201526e3732bc34b9ba32b73a103a37b5b2b760891b606082015260800190565b60208082526017908201527f446f6e74206861766520656e6f75677468204574686572000000000000000000604082015260600190565b60208082526021908201527f4552433732313a20617070726f76616c20746f2063757272656e74206f776e656040820152603960f91b606082015260800190565b60208082526010908201526f04572726f7220696e206c6576656c55760841b604082015260600190565b60208082526031908201527f4552433732313a207472616e736665722063616c6c6572206973206e6f74206f6040820152701ddb995c881b9bdc88185c1c1c9bdd9959607a1b606082015260800190565b90815260200190565b918252602082015260400190565b6000821982111561208f5761208f612175565b500190565b6000826120a3576120a361218b565b500490565b6000828210156120ba576120ba612175565b500390565b60005b838110156120da5781810151838201526020016120c2565b83811115610b8d5750506000910152565b6002810460018216806120ff57607f821691505b6020821081141561212057634e487b7160e01b600052602260045260246000fd5b50919050565b600060001982141561213a5761213a612175565b5060010190565b600060ff821660ff81141561215857612158612175565b60010192915050565b6000826121705761217061218b565b500690565b634e487b7160e01b600052601160045260246000fd5b634e487b7160e01b600052601260045260246000fd5b634e487b7160e01b600052604160045260246000fd5b6001600160e01b031981168114610cb257600080fdfea26469706673582212209c32d03ee71767520f9e235e72b3405e9e91666115e70b956e03a279148e282a64736f6c63430008000033",
  "immutableReferences": {},
  "source": "// SPDX-License-Identifier: MIT\npragma solidity ^0.8.0;\n\nimport \"@openzeppelin/contracts/token/ERC721/ERC721.sol\";\nimport \"@openzeppelin/contracts/access/Ownable.sol\";\n\ncontract YogiToken is ERC721, Ownable {\n    constructor(string memory _name, string memory _symbol)\n        ERC721(_name, _symbol)\n    {}\n\n    uint256 COUNTER;\n    uint256 fee = 0.01 ether;\n\n    struct Yogi {\n        string name;\n        uint256 id;\n        uint256 dna;\n        uint8 level;\n        uint8 rarity;\n    }\n\n    Yogi[] public yogis;\n\n    event NewYogi(address indexed owner, uint256 id, uint256 dna);\n\n    function _createRandomNum(uint256 _mod) internal view returns (uint256) {\n        uint256 randomNum = uint256(\n            keccak256(abi.encodePacked(block.timestamp, msg.sender))\n        );\n\n        return randomNum % _mod;\n    }\n\n    function updateFee(uint256 _fee) external onlyOwner {\n        fee = _fee;\n    }\n\n    function withdraw() external payable onlyOwner {\n        address payable _owner = payable(owner());\n        _owner.transfer(address(this).balance);\n    }\n\n    function _createYogi(string memory _name) internal {\n        uint8 randRarity = uint8(_createRandomNum(100));\n        uint256 randDna = _createRandomNum(10**16);\n        Yogi memory newYogi = Yogi(_name, COUNTER, randDna, 1, randRarity);\n        yogis.push(newYogi);\n        _safeMint(msg.sender, COUNTER);\n        emit NewYogi(msg.sender, COUNTER, randDna);\n        COUNTER++;\n    }\n\n    function createRandonYogi(string memory _name) public payable {\n        require(msg.value <= fee, \"Dont have enougth Ether\");\n        _createYogi(_name);\n    }\n\n    function getYogis() public view returns (Yogi[] memory) {\n        return yogis;\n    }\n\n    function getOwnerYogis(address _owner) public view returns (Yogi[] memory) {\n        Yogi[] memory result = new Yogi[](balanceOf(_owner));\n        uint256 counter = 0;\n        for (uint256 i = 0; i < yogis.length; i++) {\n            if (ownerOf(i) == _owner) {\n                result[counter] = yogis[i];\n                counter++;\n            }\n        }\n        return result;\n    }\n\n    // Acctions\n    function levelUp(uint256 _yogiId) public {\n        require(ownerOf(_yogiId) == msg.sender, \"Error in levelUp\");\n        Yogi storage yogi = yogis[_yogiId];\n        yogi.level++;\n    }\n}\n",
  "sourcePath": "/home/user/Developer/yogi/contracts/YogiToken.sol",
  "compiler": {
    "name": "solc",
    "version": "0.8.0+commit.c7dfd78e.Emscripten.clang"
  },
  "schemaVersion": "3.4.3",
  "updatedAt": "2022-01-05T22:24:50.424Z",
  "networkType": "ethereum",
  "devdoc": {
    "kind": "dev",
    "methods": {
      "approve(address,uint256)": {
        "details": "See {IERC721-approve}."
      },
      "balanceOf(address)": {
        "details": "See {IERC721-balanceOf}."
      },
      "getApproved(uint256)": {
        "details": "See {IERC721-getApproved}."
      },
      "isApprovedForAll(address,address)": {
        "details": "See {IERC721-isApprovedForAll}."
      },
      "name()": {
        "details": "See {IERC721Metadata-name}."
      },
      "owner()": {
        "details": "Returns the address of the current owner."
      },
      "ownerOf(uint256)": {
        "details": "See {IERC721-ownerOf}."
      },
      "renounceOwnership()": {
        "details": "Leaves the contract without owner. It will not be possible to call `onlyOwner` functions anymore. Can only be called by the current owner. NOTE: Renouncing ownership will leave the contract without an owner, thereby removing any functionality that is only available to the owner."
      },
      "safeTransferFrom(address,address,uint256)": {
        "details": "See {IERC721-safeTransferFrom}."
      },
      "safeTransferFrom(address,address,uint256,bytes)": {
        "details": "See {IERC721-safeTransferFrom}."
      },
      "setApprovalForAll(address,bool)": {
        "details": "See {IERC721-setApprovalForAll}."
      },
      "supportsInterface(bytes4)": {
        "details": "See {IERC165-supportsInterface}."
      },
      "symbol()": {
        "details": "See {IERC721Metadata-symbol}."
      },
      "tokenURI(uint256)": {
        "details": "See {IERC721Metadata-tokenURI}."
      },
      "transferFrom(address,address,uint256)": {
        "details": "See {IERC721-transferFrom}."
      },
      "transferOwnership(address)": {
        "details": "Transfers ownership of the contract to a new account (`newOwner`). Can only be called by the current owner."
      }
    },
    "version": 1
  },
  "userdoc": {
    "kind": "user",
    "methods": {},
    "version": 1
  }
}